Archive member included to satisfy reference by file (symbol)

/home/gabo/infoIndusLocal/workspace/peripherals_lib/flash/libperipherals_lib.a(gpio.o)
                              ./src/CapTouch_5ch_main.o (GPIOSetBitValue)
/home/gabo/infoIndusLocal/workspace/peripherals_lib/flash/libperipherals_lib.a(swm.o)
                              ./src/CapTouch_5ch_main.o (ConfigSWM)
/home/gabo/infoIndusLocal/workspace/peripherals_lib/flash/libperipherals_lib.a(syscon.o)
                              ./src/CapTouch_5ch_main.o (Do_Periph_Reset)
/usr/local/mcuxpressoide-11.8.0_1165/ide/plugins/com.nxp.mcuxpresso.tools.linux_11.8.0.202306131047/tools/bin/../lib/gcc/arm-none-eabi/12.2.1/../../../../arm-none-eabi/lib/thumb/v6-m/nofp/libcr_nohost_nf.a(_cr__main.o)
                              ./src/MCUXpresso_cr_startup.o (__main)
/usr/local/mcuxpressoide-11.8.0_1165/ide/plugins/com.nxp.mcuxpresso.tools.linux_11.8.0.202306131047/tools/bin/../lib/gcc/arm-none-eabi/12.2.1/../../../../arm-none-eabi/lib/thumb/v6-m/nofp/libcr_c.a(initio.o)
                              /usr/local/mcuxpressoide-11.8.0_1165/ide/plugins/com.nxp.mcuxpresso.tools.linux_11.8.0.202306131047/tools/bin/../lib/gcc/arm-none-eabi/12.2.1/../../../../arm-none-eabi/lib/thumb/v6-m/nofp/libcr_nohost_nf.a(_cr__main.o) (_initio)
/usr/local/mcuxpressoide-11.8.0_1165/ide/plugins/com.nxp.mcuxpresso.tools.linux_11.8.0.202306131047/tools/bin/../lib/gcc/arm-none-eabi/12.2.1/../../../../arm-none-eabi/lib/thumb/v6-m/nofp/libcr_c.a(setvbuf.o)
                              /usr/local/mcuxpressoide-11.8.0_1165/ide/plugins/com.nxp.mcuxpresso.tools.linux_11.8.0.202306131047/tools/bin/../lib/gcc/arm-none-eabi/12.2.1/../../../../arm-none-eabi/lib/thumb/v6-m/nofp/libcr_c.a(initio.o) (setvbuf)
/usr/local/mcuxpressoide-11.8.0_1165/ide/plugins/com.nxp.mcuxpresso.tools.linux_11.8.0.202306131047/tools/bin/../lib/gcc/arm-none-eabi/12.2.1/../../../../arm-none-eabi/lib/thumb/v6-m/nofp/libcr_c.a(_fdopen.o)
                              /usr/local/mcuxpressoide-11.8.0_1165/ide/plugins/com.nxp.mcuxpresso.tools.linux_11.8.0.202306131047/tools/bin/../lib/gcc/arm-none-eabi/12.2.1/../../../../arm-none-eabi/lib/thumb/v6-m/nofp/libcr_c.a(initio.o) (_fdopen)
/usr/local/mcuxpressoide-11.8.0_1165/ide/plugins/com.nxp.mcuxpresso.tools.linux_11.8.0.202306131047/tools/bin/../lib/gcc/arm-none-eabi/12.2.1/../../../../arm-none-eabi/lib/thumb/v6-m/nofp/libcr_c.a(fclose.o)
                              /usr/local/mcuxpressoide-11.8.0_1165/ide/plugins/com.nxp.mcuxpresso.tools.linux_11.8.0.202306131047/tools/bin/../lib/gcc/arm-none-eabi/12.2.1/../../../../arm-none-eabi/lib/thumb/v6-m/nofp/libcr_c.a(initio.o) (fclose)
/usr/local/mcuxpressoide-11.8.0_1165/ide/plugins/com.nxp.mcuxpresso.tools.linux_11.8.0.202306131047/tools/bin/../lib/gcc/arm-none-eabi/12.2.1/../../../../arm-none-eabi/lib/thumb/v6-m/nofp/libcr_c.a(fflush.o)
                              /usr/local/mcuxpressoide-11.8.0_1165/ide/plugins/com.nxp.mcuxpresso.tools.linux_11.8.0.202306131047/tools/bin/../lib/gcc/arm-none-eabi/12.2.1/../../../../arm-none-eabi/lib/thumb/v6-m/nofp/libcr_c.a(fclose.o) (fflush)
/usr/local/mcuxpressoide-11.8.0_1165/ide/plugins/com.nxp.mcuxpresso.tools.linux_11.8.0.202306131047/tools/bin/../lib/gcc/arm-none-eabi/12.2.1/../../../../arm-none-eabi/lib/thumb/v6-m/nofp/libcr_c.a(fseek.o)
                              /usr/local/mcuxpressoide-11.8.0_1165/ide/plugins/com.nxp.mcuxpresso.tools.linux_11.8.0.202306131047/tools/bin/../lib/gcc/arm-none-eabi/12.2.1/../../../../arm-none-eabi/lib/thumb/v6-m/nofp/libcr_c.a(_fdopen.o) (fseek)
/usr/local/mcuxpressoide-11.8.0_1165/ide/plugins/com.nxp.mcuxpresso.tools.linux_11.8.0.202306131047/tools/bin/../lib/gcc/arm-none-eabi/12.2.1/../../../../arm-none-eabi/lib/thumb/v6-m/nofp/libcr_c.a(ftell.o)
                              /usr/local/mcuxpressoide-11.8.0_1165/ide/plugins/com.nxp.mcuxpresso.tools.linux_11.8.0.202306131047/tools/bin/../lib/gcc/arm-none-eabi/12.2.1/../../../../arm-none-eabi/lib/thumb/v6-m/nofp/libcr_c.a(fseek.o) (ftell)
/usr/local/mcuxpressoide-11.8.0_1165/ide/plugins/com.nxp.mcuxpresso.tools.linux_11.8.0.202306131047/tools/bin/../lib/gcc/arm-none-eabi/12.2.1/../../../../arm-none-eabi/lib/thumb/v6-m/nofp/libcr_c.a(remove.o)
                              /usr/local/mcuxpressoide-11.8.0_1165/ide/plugins/com.nxp.mcuxpresso.tools.linux_11.8.0.202306131047/tools/bin/../lib/gcc/arm-none-eabi/12.2.1/../../../../arm-none-eabi/lib/thumb/v6-m/nofp/libcr_c.a(fclose.o) (remove)
/usr/local/mcuxpressoide-11.8.0_1165/ide/plugins/com.nxp.mcuxpresso.tools.linux_11.8.0.202306131047/tools/bin/../lib/gcc/arm-none-eabi/12.2.1/../../../../arm-none-eabi/lib/thumb/v6-m/nofp/libcr_c.a(strlen.o)
                              /usr/local/mcuxpressoide-11.8.0_1165/ide/plugins/com.nxp.mcuxpresso.tools.linux_11.8.0.202306131047/tools/bin/../lib/gcc/arm-none-eabi/12.2.1/../../../../arm-none-eabi/lib/thumb/v6-m/nofp/libcr_c.a(remove.o) (strlen)
/usr/local/mcuxpressoide-11.8.0_1165/ide/plugins/com.nxp.mcuxpresso.tools.linux_11.8.0.202306131047/tools/bin/../lib/gcc/arm-none-eabi/12.2.1/../../../../arm-none-eabi/lib/thumb/v6-m/nofp/libcr_c.a(memset.o)
                              /usr/local/mcuxpressoide-11.8.0_1165/ide/plugins/com.nxp.mcuxpresso.tools.linux_11.8.0.202306131047/tools/bin/../lib/gcc/arm-none-eabi/12.2.1/../../../../arm-none-eabi/lib/thumb/v6-m/nofp/libcr_c.a(fclose.o) (memset)
/usr/local/mcuxpressoide-11.8.0_1165/ide/plugins/com.nxp.mcuxpresso.tools.linux_11.8.0.202306131047/tools/bin/../lib/gcc/arm-none-eabi/12.2.1/../../../../arm-none-eabi/lib/thumb/v6-m/nofp/libcr_c.a(_do_fflush.o)
                              /usr/local/mcuxpressoide-11.8.0_1165/ide/plugins/com.nxp.mcuxpresso.tools.linux_11.8.0.202306131047/tools/bin/../lib/gcc/arm-none-eabi/12.2.1/../../../../arm-none-eabi/lib/thumb/v6-m/nofp/libcr_c.a(fflush.o) (_do_fflush)
/usr/local/mcuxpressoide-11.8.0_1165/ide/plugins/com.nxp.mcuxpresso.tools.linux_11.8.0.202306131047/tools/bin/../lib/gcc/arm-none-eabi/12.2.1/../../../../arm-none-eabi/lib/thumb/v6-m/nofp/libcr_c.a(_fflush.o)
                              /usr/local/mcuxpressoide-11.8.0_1165/ide/plugins/com.nxp.mcuxpresso.tools.linux_11.8.0.202306131047/tools/bin/../lib/gcc/arm-none-eabi/12.2.1/../../../../arm-none-eabi/lib/thumb/v6-m/nofp/libcr_c.a(_do_fflush.o) (_fflush)
/usr/local/mcuxpressoide-11.8.0_1165/ide/plugins/com.nxp.mcuxpresso.tools.linux_11.8.0.202306131047/tools/bin/../lib/gcc/arm-none-eabi/12.2.1/../../../../arm-none-eabi/lib/thumb/v6-m/nofp/libcr_c.a(_writebuf.o)
                              /usr/local/mcuxpressoide-11.8.0_1165/ide/plugins/com.nxp.mcuxpresso.tools.linux_11.8.0.202306131047/tools/bin/../lib/gcc/arm-none-eabi/12.2.1/../../../../arm-none-eabi/lib/thumb/v6-m/nofp/libcr_c.a(_fflush.o) (_Cwritebuf)
/usr/local/mcuxpressoide-11.8.0_1165/ide/plugins/com.nxp.mcuxpresso.tools.linux_11.8.0.202306131047/tools/bin/../lib/gcc/arm-none-eabi/12.2.1/../../../../arm-none-eabi/lib/thumb/v6-m/nofp/libcr_c.a(alloc.o)
                              /usr/local/mcuxpressoide-11.8.0_1165/ide/plugins/com.nxp.mcuxpresso.tools.linux_11.8.0.202306131047/tools/bin/../lib/gcc/arm-none-eabi/12.2.1/../../../../arm-none-eabi/lib/thumb/v6-m/nofp/libcr_c.a(fclose.o) (free)
/usr/local/mcuxpressoide-11.8.0_1165/ide/plugins/com.nxp.mcuxpresso.tools.linux_11.8.0.202306131047/tools/bin/../lib/gcc/arm-none-eabi/12.2.1/../../../../arm-none-eabi/lib/thumb/v6-m/nofp/libcr_c.a(errno.o)
                              /usr/local/mcuxpressoide-11.8.0_1165/ide/plugins/com.nxp.mcuxpresso.tools.linux_11.8.0.202306131047/tools/bin/../lib/gcc/arm-none-eabi/12.2.1/../../../../arm-none-eabi/lib/thumb/v6-m/nofp/libcr_c.a(ftell.o) (errno)
/usr/local/mcuxpressoide-11.8.0_1165/ide/plugins/com.nxp.mcuxpresso.tools.linux_11.8.0.202306131047/tools/bin/../lib/gcc/arm-none-eabi/12.2.1/../../../../arm-none-eabi/lib/thumb/v6-m/nofp/libcr_c.a(memcpy.o)
                              /usr/local/mcuxpressoide-11.8.0_1165/ide/plugins/com.nxp.mcuxpresso.tools.linux_11.8.0.202306131047/tools/bin/../lib/gcc/arm-none-eabi/12.2.1/../../../../arm-none-eabi/lib/thumb/v6-m/nofp/libcr_c.a(alloc.o) (memcpy)
/usr/local/mcuxpressoide-11.8.0_1165/ide/plugins/com.nxp.mcuxpresso.tools.linux_11.8.0.202306131047/tools/bin/../lib/gcc/arm-none-eabi/12.2.1/../../../../arm-none-eabi/lib/thumb/v6-m/nofp/libcr_c.a(__init_alloc.o)
                              /usr/local/mcuxpressoide-11.8.0_1165/ide/plugins/com.nxp.mcuxpresso.tools.linux_11.8.0.202306131047/tools/bin/../lib/gcc/arm-none-eabi/12.2.1/../../../../arm-none-eabi/lib/thumb/v6-m/nofp/libcr_c.a(alloc.o) (__heaps)
/usr/local/mcuxpressoide-11.8.0_1165/ide/plugins/com.nxp.mcuxpresso.tools.linux_11.8.0.202306131047/tools/bin/../lib/gcc/arm-none-eabi/12.2.1/../../../../arm-none-eabi/lib/thumb/v6-m/nofp/libcr_c.a(_cr_sbrk.o)
                              /usr/local/mcuxpressoide-11.8.0_1165/ide/plugins/com.nxp.mcuxpresso.tools.linux_11.8.0.202306131047/tools/bin/../lib/gcc/arm-none-eabi/12.2.1/../../../../arm-none-eabi/lib/thumb/v6-m/nofp/libcr_c.a(alloc.o) (_sbrk)
/usr/local/mcuxpressoide-11.8.0_1165/ide/plugins/com.nxp.mcuxpresso.tools.linux_11.8.0.202306131047/tools/bin/../lib/gcc/arm-none-eabi/12.2.1/../../../../arm-none-eabi/lib/thumb/v6-m/nofp/libcr_c.a(_deferredlazyseek.o)
                              /usr/local/mcuxpressoide-11.8.0_1165/ide/plugins/com.nxp.mcuxpresso.tools.linux_11.8.0.202306131047/tools/bin/../lib/gcc/arm-none-eabi/12.2.1/../../../../arm-none-eabi/lib/thumb/v6-m/nofp/libcr_c.a(_do_fflush.o) (_deferredlazyseek)
/usr/local/mcuxpressoide-11.8.0_1165/ide/plugins/com.nxp.mcuxpresso.tools.linux_11.8.0.202306131047/tools/bin/../lib/gcc/arm-none-eabi/12.2.1/../../../../arm-none-eabi/lib/thumb/v6-m/nofp/libcr_c.a(_cr_check_heap.o)
                              /usr/local/mcuxpressoide-11.8.0_1165/ide/plugins/com.nxp.mcuxpresso.tools.linux_11.8.0.202306131047/tools/bin/../lib/gcc/arm-none-eabi/12.2.1/../../../../arm-none-eabi/lib/thumb/v6-m/nofp/libcr_c.a(_cr_sbrk.o) (__check_heap_overflow)
/usr/local/mcuxpressoide-11.8.0_1165/ide/plugins/com.nxp.mcuxpresso.tools.linux_11.8.0.202306131047/tools/bin/../lib/gcc/arm-none-eabi/12.2.1/thumb/v6-m/nofp/libcr_eabihelpers.a(division_32.o)
                              ./src/CapTouch_5ch_ISRs.o (__aeabi_uidiv)
/usr/local/mcuxpressoide-11.8.0_1165/ide/plugins/com.nxp.mcuxpresso.tools.linux_11.8.0.202306131047/tools/bin/../lib/gcc/arm-none-eabi/12.2.1/thumb/v6-m/nofp/libcr_eabihelpers.a(division_idiv0.o)
                              /usr/local/mcuxpressoide-11.8.0_1165/ide/plugins/com.nxp.mcuxpresso.tools.linux_11.8.0.202306131047/tools/bin/../lib/gcc/arm-none-eabi/12.2.1/thumb/v6-m/nofp/libcr_eabihelpers.a(division_32.o) (__aeabi_idiv0)
/usr/local/mcuxpressoide-11.8.0_1165/ide/plugins/com.nxp.mcuxpresso.tools.linux_11.8.0.202306131047/tools/bin/../lib/gcc/arm-none-eabi/12.2.1/thumb/v6-m/nofp/libcr_eabihelpers.a(memcpy.o)
                              /usr/local/mcuxpressoide-11.8.0_1165/ide/plugins/com.nxp.mcuxpresso.tools.linux_11.8.0.202306131047/tools/bin/../lib/gcc/arm-none-eabi/12.2.1/../../../../arm-none-eabi/lib/thumb/v6-m/nofp/libcr_c.a(memcpy.o) (__aeabi_memcpy)
/usr/local/mcuxpressoide-11.8.0_1165/ide/plugins/com.nxp.mcuxpresso.tools.linux_11.8.0.202306131047/tools/bin/../lib/gcc/arm-none-eabi/12.2.1/../../../../arm-none-eabi/lib/thumb/v6-m/nofp/libcr_nohost_nf.a(__ciob.o)
                              /usr/local/mcuxpressoide-11.8.0_1165/ide/plugins/com.nxp.mcuxpresso.tools.linux_11.8.0.202306131047/tools/bin/../lib/gcc/arm-none-eabi/12.2.1/../../../../arm-none-eabi/lib/thumb/v6-m/nofp/libcr_c.a(initio.o) (__Ciob)
/usr/local/mcuxpressoide-11.8.0_1165/ide/plugins/com.nxp.mcuxpresso.tools.linux_11.8.0.202306131047/tools/bin/../lib/gcc/arm-none-eabi/12.2.1/../../../../arm-none-eabi/lib/thumb/v6-m/nofp/libcr_nohost_nf.a(__sys_appexit.o)
                              /usr/local/mcuxpressoide-11.8.0_1165/ide/plugins/com.nxp.mcuxpresso.tools.linux_11.8.0.202306131047/tools/bin/../lib/gcc/arm-none-eabi/12.2.1/../../../../arm-none-eabi/lib/thumb/v6-m/nofp/libcr_c.a(alloc.o) (__sys_appexit)
/usr/local/mcuxpressoide-11.8.0_1165/ide/plugins/com.nxp.mcuxpresso.tools.linux_11.8.0.202306131047/tools/bin/../lib/gcc/arm-none-eabi/12.2.1/../../../../arm-none-eabi/lib/thumb/v6-m/nofp/libcr_nohost_nf.a(__sys_close.o)
                              /usr/local/mcuxpressoide-11.8.0_1165/ide/plugins/com.nxp.mcuxpresso.tools.linux_11.8.0.202306131047/tools/bin/../lib/gcc/arm-none-eabi/12.2.1/../../../../arm-none-eabi/lib/thumb/v6-m/nofp/libcr_c.a(fclose.o) (__sys_close)
/usr/local/mcuxpressoide-11.8.0_1165/ide/plugins/com.nxp.mcuxpresso.tools.linux_11.8.0.202306131047/tools/bin/../lib/gcc/arm-none-eabi/12.2.1/../../../../arm-none-eabi/lib/thumb/v6-m/nofp/libcr_nohost_nf.a(__sys_flen.o)
                              /usr/local/mcuxpressoide-11.8.0_1165/ide/plugins/com.nxp.mcuxpresso.tools.linux_11.8.0.202306131047/tools/bin/../lib/gcc/arm-none-eabi/12.2.1/../../../../arm-none-eabi/lib/thumb/v6-m/nofp/libcr_c.a(fseek.o) (__sys_flen)
/usr/local/mcuxpressoide-11.8.0_1165/ide/plugins/com.nxp.mcuxpresso.tools.linux_11.8.0.202306131047/tools/bin/../lib/gcc/arm-none-eabi/12.2.1/../../../../arm-none-eabi/lib/thumb/v6-m/nofp/libcr_nohost_nf.a(__sys_istty.o)
                              /usr/local/mcuxpressoide-11.8.0_1165/ide/plugins/com.nxp.mcuxpresso.tools.linux_11.8.0.202306131047/tools/bin/../lib/gcc/arm-none-eabi/12.2.1/../../../../arm-none-eabi/lib/thumb/v6-m/nofp/libcr_c.a(fseek.o) (__sys_istty)
/usr/local/mcuxpressoide-11.8.0_1165/ide/plugins/com.nxp.mcuxpresso.tools.linux_11.8.0.202306131047/tools/bin/../lib/gcc/arm-none-eabi/12.2.1/../../../../arm-none-eabi/lib/thumb/v6-m/nofp/libcr_nohost_nf.a(__sys_remove.o)
                              /usr/local/mcuxpressoide-11.8.0_1165/ide/plugins/com.nxp.mcuxpresso.tools.linux_11.8.0.202306131047/tools/bin/../lib/gcc/arm-none-eabi/12.2.1/../../../../arm-none-eabi/lib/thumb/v6-m/nofp/libcr_c.a(remove.o) (__sys_remove)
/usr/local/mcuxpressoide-11.8.0_1165/ide/plugins/com.nxp.mcuxpresso.tools.linux_11.8.0.202306131047/tools/bin/../lib/gcc/arm-none-eabi/12.2.1/../../../../arm-none-eabi/lib/thumb/v6-m/nofp/libcr_nohost_nf.a(__sys_rename.o)
                              /usr/local/mcuxpressoide-11.8.0_1165/ide/plugins/com.nxp.mcuxpresso.tools.linux_11.8.0.202306131047/tools/bin/../lib/gcc/arm-none-eabi/12.2.1/../../../../arm-none-eabi/lib/thumb/v6-m/nofp/libcr_c.a(remove.o) (__sys_rename)
/usr/local/mcuxpressoide-11.8.0_1165/ide/plugins/com.nxp.mcuxpresso.tools.linux_11.8.0.202306131047/tools/bin/../lib/gcc/arm-none-eabi/12.2.1/../../../../arm-none-eabi/lib/thumb/v6-m/nofp/libcr_nohost_nf.a(__sys_seek.o)
                              /usr/local/mcuxpressoide-11.8.0_1165/ide/plugins/com.nxp.mcuxpresso.tools.linux_11.8.0.202306131047/tools/bin/../lib/gcc/arm-none-eabi/12.2.1/../../../../arm-none-eabi/lib/thumb/v6-m/nofp/libcr_c.a(_writebuf.o) (__sys_seek)
/usr/local/mcuxpressoide-11.8.0_1165/ide/plugins/com.nxp.mcuxpresso.tools.linux_11.8.0.202306131047/tools/bin/../lib/gcc/arm-none-eabi/12.2.1/../../../../arm-none-eabi/lib/thumb/v6-m/nofp/libcr_nohost_nf.a(__sys_tmpnam.o)
                              /usr/local/mcuxpressoide-11.8.0_1165/ide/plugins/com.nxp.mcuxpresso.tools.linux_11.8.0.202306131047/tools/bin/../lib/gcc/arm-none-eabi/12.2.1/../../../../arm-none-eabi/lib/thumb/v6-m/nofp/libcr_c.a(fclose.o) (__sys_tmpnam)

Discarded input sections

 .group         0x0000000000000000        0xc ./src/CapTouch_5ch_ISRs.o
 .group         0x0000000000000000        0xc ./src/CapTouch_5ch_ISRs.o
 .group         0x0000000000000000        0xc ./src/CapTouch_5ch_ISRs.o
 .group         0x0000000000000000        0xc ./src/CapTouch_5ch_ISRs.o
 .group         0x0000000000000000        0xc ./src/CapTouch_5ch_ISRs.o
 .group         0x0000000000000000        0xc ./src/CapTouch_5ch_ISRs.o
 .group         0x0000000000000000        0xc ./src/CapTouch_5ch_ISRs.o
 .group         0x0000000000000000        0xc ./src/CapTouch_5ch_ISRs.o
 .group         0x0000000000000000        0xc ./src/CapTouch_5ch_ISRs.o
 .group         0x0000000000000000        0xc ./src/CapTouch_5ch_ISRs.o
 .group         0x0000000000000000        0xc ./src/CapTouch_5ch_ISRs.o
 .group         0x0000000000000000        0xc ./src/CapTouch_5ch_ISRs.o
 .group         0x0000000000000000        0xc ./src/CapTouch_5ch_ISRs.o
 .group         0x0000000000000000        0xc ./src/CapTouch_5ch_ISRs.o
 .group         0x0000000000000000        0xc ./src/CapTouch_5ch_ISRs.o
 .group         0x0000000000000000        0xc ./src/CapTouch_5ch_ISRs.o
 .group         0x0000000000000000        0xc ./src/CapTouch_5ch_ISRs.o
 .group         0x0000000000000000        0xc ./src/CapTouch_5ch_ISRs.o
Memory Configuration

Name             Origin             Length             Attributes
MFlash32         0x0000000000000000 0x0000000000007f80 xr
RamLoc4          0x0000000010000000 0x0000000000001000 xrw
*default*        0x0000000000000000 0xffffffffffffffff

Linker script and memory map

LOAD ./src/CapTouch_5ch_ISRs.o
LOAD ./src/CapTouch_5ch_main.o
LOAD ./src/MCUXpresso_Retarget.o
LOAD ./src/MCUXpresso_cr_startup.o
LOAD ./src/MCUXpresso_crp.o
LOAD ./src/MCUXpresso_mtb.o
LOAD ./src/Serial.o
LOAD ./src/system.o
LOAD /home/gabo/infoIndusLocal/workspace/peripherals_lib/flash/libperipherals_lib.a
LOAD /home/gabo/infoIndusLocal/workspace/utilities_lib/flash/libutilities_lib.a
START GROUP
LOAD /usr/local/mcuxpressoide-11.8.0_1165/ide/plugins/com.nxp.mcuxpresso.tools.linux_11.8.0.202306131047/tools/bin/../lib/gcc/arm-none-eabi/12.2.1/../../../../arm-none-eabi/lib/thumb/v6-m/nofp/libcr_nohost_nf.a
LOAD /usr/local/mcuxpressoide-11.8.0_1165/ide/plugins/com.nxp.mcuxpresso.tools.linux_11.8.0.202306131047/tools/bin/../lib/gcc/arm-none-eabi/12.2.1/../../../../arm-none-eabi/lib/thumb/v6-m/nofp/libcr_c.a
LOAD /usr/local/mcuxpressoide-11.8.0_1165/ide/plugins/com.nxp.mcuxpresso.tools.linux_11.8.0.202306131047/tools/bin/../lib/gcc/arm-none-eabi/12.2.1/thumb/v6-m/nofp/libcr_eabihelpers.a
LOAD /usr/local/mcuxpressoide-11.8.0_1165/ide/plugins/com.nxp.mcuxpresso.tools.linux_11.8.0.202306131047/tools/bin/../lib/gcc/arm-none-eabi/12.2.1/thumb/v6-m/nofp/libgcc.a
END GROUP
                0x0000000000000000                __base_MFlash32 = 0x0
                0x0000000000000000                __base_Flash = 0x0
                0x0000000000007f80                __top_MFlash32 = 0x7f80
                0x0000000000007f80                __top_Flash = 0x7f80
                0x0000000010000000                __base_RamLoc4 = 0x10000000
                0x0000000010000000                __base_RAM = 0x10000000
                0x0000000010001000                __top_RamLoc4 = 0x10001000
                0x0000000010001000                __top_RAM = 0x10001000

.text           0x0000000000000000     0x13f4
 FILL mask 0xff
                0x0000000000000000                __vectors_start__ = ABSOLUTE (.)
 *(.isr_vector)
 .isr_vector    0x0000000000000000       0xc0 ./src/MCUXpresso_cr_startup.o
                0x0000000000000000                g_pfnVectors
                0x00000000000000c0                . = ALIGN (0x4)
                0x00000000000000c0                __section_table_start = .
                0x00000000000000c0                __data_section_table = .
                0x00000000000000c0        0x4 LONG 0x13f4 LOADADDR (.data)
                0x00000000000000c4        0x4 LONG 0x10000000 ADDR (.data)
                0x00000000000000c8        0x4 LONG 0x1c SIZEOF (.data)
                0x00000000000000cc                __data_section_table_end = .
                0x00000000000000cc                __bss_section_table = .
                0x00000000000000cc        0x4 LONG 0x1000001c ADDR (.bss)
                0x00000000000000d0        0x4 LONG 0x100 SIZEOF (.bss)
                0x00000000000000d4                __bss_section_table_end = .
                0x00000000000000d4                __section_table_end = .
 *(.after_vectors*)
 .after_vectors
                0x00000000000000d4      0x128 ./src/MCUXpresso_cr_startup.o
                0x00000000000000d4                data_init
                0x0000000000000116                bss_init
                0x000000000000014c                ResetISR
                0x00000000000001cc                NMI_Handler
                0x00000000000001d4                HardFault_Handler
                0x00000000000001dc                SVC_Handler
                0x00000000000001e4                PendSV_Handler
                0x00000000000001ec                SysTick_Handler
                0x00000000000001f4                PININT7_IRQHandler
                0x00000000000001f4                I2C0_IRQHandler
                0x00000000000001f4                WKT_IRQHandler
                0x00000000000001f4                PININT2_IRQHandler
                0x00000000000001f4                PININT1_IRQHandler
                0x00000000000001f4                I2C1_IRQHandler
                0x00000000000001f4                UART1_IRQHandler
                0x00000000000001f4                ADC_SEQB_IRQHandler
                0x00000000000001f4                UART0_IRQHandler
                0x00000000000001f4                IntDefaultHandler
                0x00000000000001f4                ADC_OVR_IRQHandler
                0x00000000000001f4                PININT3_IRQHandler
                0x00000000000001f4                PININT5_IRQHandler
                0x00000000000001f4                PININT4_IRQHandler
                0x00000000000001f4                ADC_THCMP_IRQHandler
                0x00000000000001f4                PININT0_IRQHandler
                0x00000000000001f4                BOD_IRQHandler
                0x00000000000001f4                WDT_IRQHandler
                0x00000000000001f4                ADC_SEQA_IRQHandler
                0x00000000000001f4                DAC0_IRQHandler
                0x00000000000001f4                PININT6_IRQHandler
                0x00000000000001f4                SPI0_IRQHandler
                0x00000000000001f4                FLASH_IRQHandler
                0x00000000000001f4                CTIMER0_IRQHandler
                0x00000000000002fc                . = 0x2fc
 *fill*         0x00000000000001fc      0x100 ff
                0x00000000000002fc                PROVIDE (__CRP_WORD_START__ = .)
 *(.crp)
 .crp           0x00000000000002fc        0x4 ./src/MCUXpresso_crp.o
                0x00000000000002fc                CRP_WORD
                0x0000000000000300                PROVIDE (__CRP_WORD_END__ = .)
                0x0000000000000001                ASSERT (! ((__CRP_WORD_START__ == __CRP_WORD_END__)), Linker CRP Enabled, but no CRP_WORD provided within application)
 *(.text*)
 .text.CMP_IRQHandler
                0x0000000000000300      0x270 ./src/CapTouch_5ch_ISRs.o
                0x0000000000000300                CMP_IRQHandler
 .text.NVIC_EnableIRQ
                0x0000000000000570       0x2c ./src/CapTouch_5ch_main.o
 .text.main     0x000000000000059c       0x98 ./src/CapTouch_5ch_main.o
                0x000000000000059c                main
 .text.BOARD_InitBootClock
                0x0000000000000634       0x28 ./src/CapTouch_5ch_main.o
                0x0000000000000634                BOARD_InitBootClock
 .text.BOARD_InitBootPins
                0x000000000000065c       0x2c ./src/CapTouch_5ch_main.o
                0x000000000000065c                BOARD_InitBootPins
 .text.App_ProbeLEDx
                0x0000000000000688       0x90 ./src/CapTouch_5ch_main.o
                0x0000000000000688                App_ProbeLEDx
 .text.LEDx_Init
                0x0000000000000718       0x4c ./src/CapTouch_5ch_main.o
                0x0000000000000718                LEDx_Init
 .text.LEDx_On  0x0000000000000764       0x4c ./src/CapTouch_5ch_main.o
                0x0000000000000764                LEDx_On
 .text.LEDx_Off
                0x00000000000007b0       0x4c ./src/CapTouch_5ch_main.o
                0x00000000000007b0                LEDx_Off
 .text.MRTTicker_Init
                0x00000000000007fc       0x24 ./src/CapTouch_5ch_main.o
                0x00000000000007fc                MRTTicker_Init
 .text.MRTTicker_BlockingDelay10ms
                0x0000000000000820       0x28 ./src/CapTouch_5ch_main.o
                0x0000000000000820                MRTTicker_BlockingDelay10ms
 .text.MRT_IRQHandler
                0x0000000000000848       0x38 ./src/CapTouch_5ch_main.o
                0x0000000000000848                MRT_IRQHandler
 .text.App_CapTouch_InitClock
                0x0000000000000880       0x44 ./src/CapTouch_5ch_main.o
                0x0000000000000880                App_CapTouch_InitClock
 .text.App_CapTouch_InitPins
                0x00000000000008c4       0x70 ./src/CapTouch_5ch_main.o
                0x00000000000008c4                App_CapTouch_InitPins
 .text.App_CapTouch_Init
                0x0000000000000934       0x44 ./src/CapTouch_5ch_main.o
                0x0000000000000934                App_CapTouch_Init
 .text.App_CapTouch_StartPollContinuous
                0x0000000000000978       0x34 ./src/CapTouch_5ch_main.o
                0x0000000000000978                App_CapTouch_StartPollContinuous
 .text.get_min_idx
                0x00000000000009ac       0x4e ./src/CapTouch_5ch_main.o
                0x00000000000009ac                get_min_idx
 .text.get_max_idx
                0x00000000000009fa       0x4e ./src/CapTouch_5ch_main.o
                0x00000000000009fa                get_max_idx
 .text.__sys_write
                0x0000000000000a48       0x48 ./src/MCUXpresso_Retarget.o
                0x0000000000000a48                __sys_write
 .text.sendchar
                0x0000000000000a90       0x28 ./src/Serial.o
                0x0000000000000a90                sendchar
 .text.SystemInit
                0x0000000000000ab8       0x90 ./src/system.o
                0x0000000000000ab8                SystemInit
 .text.SystemCoreClockUpdate
                0x0000000000000b48      0x104 ./src/system.o
                0x0000000000000b48                SystemCoreClockUpdate
 .text.GPIOSetBitValue
                0x0000000000000c4c       0x50 /home/gabo/infoIndusLocal/workspace/peripherals_lib/flash/libperipherals_lib.a(gpio.o)
                0x0000000000000c4c                GPIOSetBitValue
 .text.GPIOSetDir
                0x0000000000000c9c       0x50 /home/gabo/infoIndusLocal/workspace/peripherals_lib/flash/libperipherals_lib.a(gpio.o)
                0x0000000000000c9c                GPIOSetDir
 .text.ConfigSWM
                0x0000000000000cec       0x80 /home/gabo/infoIndusLocal/workspace/peripherals_lib/flash/libperipherals_lib.a(swm.o)
                0x0000000000000cec                ConfigSWM
 .text.Do_Periph_Reset
                0x0000000000000d6c       0x84 /home/gabo/infoIndusLocal/workspace/peripherals_lib/flash/libperipherals_lib.a(syscon.o)
                0x0000000000000d6c                Do_Periph_Reset
 .text.__main   0x0000000000000df0        0xc /usr/local/mcuxpressoide-11.8.0_1165/ide/plugins/com.nxp.mcuxpresso.tools.linux_11.8.0.202306131047/tools/bin/../lib/gcc/arm-none-eabi/12.2.1/../../../../arm-none-eabi/lib/thumb/v6-m/nofp/libcr_nohost_nf.a(_cr__main.o)
                0x0000000000000df0                __main
 .text._initio  0x0000000000000dfc       0x7c /usr/local/mcuxpressoide-11.8.0_1165/ide/plugins/com.nxp.mcuxpresso.tools.linux_11.8.0.202306131047/tools/bin/../lib/gcc/arm-none-eabi/12.2.1/../../../../arm-none-eabi/lib/thumb/v6-m/nofp/libcr_c.a(initio.o)
                0x0000000000000dfc                _initio
 .text.setvbuf  0x0000000000000e78       0x4c /usr/local/mcuxpressoide-11.8.0_1165/ide/plugins/com.nxp.mcuxpresso.tools.linux_11.8.0.202306131047/tools/bin/../lib/gcc/arm-none-eabi/12.2.1/../../../../arm-none-eabi/lib/thumb/v6-m/nofp/libcr_c.a(setvbuf.o)
                0x0000000000000e78                setvbuf
 .text._fdopen  0x0000000000000ec4       0x74 /usr/local/mcuxpressoide-11.8.0_1165/ide/plugins/com.nxp.mcuxpresso.tools.linux_11.8.0.202306131047/tools/bin/../lib/gcc/arm-none-eabi/12.2.1/../../../../arm-none-eabi/lib/thumb/v6-m/nofp/libcr_c.a(_fdopen.o)
                0x0000000000000ec4                _fdopen
 .text.fclose   0x0000000000000f38       0x5c /usr/local/mcuxpressoide-11.8.0_1165/ide/plugins/com.nxp.mcuxpresso.tools.linux_11.8.0.202306131047/tools/bin/../lib/gcc/arm-none-eabi/12.2.1/../../../../arm-none-eabi/lib/thumb/v6-m/nofp/libcr_c.a(fclose.o)
                0x0000000000000f38                fclose
 .text.fflush   0x0000000000000f94       0x40 /usr/local/mcuxpressoide-11.8.0_1165/ide/plugins/com.nxp.mcuxpresso.tools.linux_11.8.0.202306131047/tools/bin/../lib/gcc/arm-none-eabi/12.2.1/../../../../arm-none-eabi/lib/thumb/v6-m/nofp/libcr_c.a(fflush.o)
                0x0000000000000f94                fflush
 .text.fseek    0x0000000000000fd4       0xec /usr/local/mcuxpressoide-11.8.0_1165/ide/plugins/com.nxp.mcuxpresso.tools.linux_11.8.0.202306131047/tools/bin/../lib/gcc/arm-none-eabi/12.2.1/../../../../arm-none-eabi/lib/thumb/v6-m/nofp/libcr_c.a(fseek.o)
                0x0000000000000fd4                fseek
 .text.ftell    0x00000000000010c0       0x4c /usr/local/mcuxpressoide-11.8.0_1165/ide/plugins/com.nxp.mcuxpresso.tools.linux_11.8.0.202306131047/tools/bin/../lib/gcc/arm-none-eabi/12.2.1/../../../../arm-none-eabi/lib/thumb/v6-m/nofp/libcr_c.a(ftell.o)
                0x00000000000010c0                ftell
 .text.remove   0x000000000000110c       0x12 /usr/local/mcuxpressoide-11.8.0_1165/ide/plugins/com.nxp.mcuxpresso.tools.linux_11.8.0.202306131047/tools/bin/../lib/gcc/arm-none-eabi/12.2.1/../../../../arm-none-eabi/lib/thumb/v6-m/nofp/libcr_c.a(remove.o)
                0x000000000000110c                remove
 *fill*         0x000000000000111e        0x2 ff
 .text.strlen   0x0000000000001120       0x5c /usr/local/mcuxpressoide-11.8.0_1165/ide/plugins/com.nxp.mcuxpresso.tools.linux_11.8.0.202306131047/tools/bin/../lib/gcc/arm-none-eabi/12.2.1/../../../../arm-none-eabi/lib/thumb/v6-m/nofp/libcr_c.a(strlen.o)
                0x0000000000001120                strlen
 .text.memset   0x000000000000117c        0x8 /usr/local/mcuxpressoide-11.8.0_1165/ide/plugins/com.nxp.mcuxpresso.tools.linux_11.8.0.202306131047/tools/bin/../lib/gcc/arm-none-eabi/12.2.1/../../../../arm-none-eabi/lib/thumb/v6-m/nofp/libcr_c.a(memset.o)
                0x000000000000117c                memset
 .text._do_fflush
                0x0000000000001184       0x48 /usr/local/mcuxpressoide-11.8.0_1165/ide/plugins/com.nxp.mcuxpresso.tools.linux_11.8.0.202306131047/tools/bin/../lib/gcc/arm-none-eabi/12.2.1/../../../../arm-none-eabi/lib/thumb/v6-m/nofp/libcr_c.a(_do_fflush.o)
                0x0000000000001184                _do_fflush
 .text._fflush  0x00000000000011cc       0x5c /usr/local/mcuxpressoide-11.8.0_1165/ide/plugins/com.nxp.mcuxpresso.tools.linux_11.8.0.202306131047/tools/bin/../lib/gcc/arm-none-eabi/12.2.1/../../../../arm-none-eabi/lib/thumb/v6-m/nofp/libcr_c.a(_fflush.o)
                0x00000000000011cc                _fflush
 .text._Cwritebuf
                0x0000000000001228       0x68 /usr/local/mcuxpressoide-11.8.0_1165/ide/plugins/com.nxp.mcuxpresso.tools.linux_11.8.0.202306131047/tools/bin/../lib/gcc/arm-none-eabi/12.2.1/../../../../arm-none-eabi/lib/thumb/v6-m/nofp/libcr_c.a(_writebuf.o)
                0x0000000000001228                _Cwritebuf
 .text.free     0x0000000000001290       0x2c /usr/local/mcuxpressoide-11.8.0_1165/ide/plugins/com.nxp.mcuxpresso.tools.linux_11.8.0.202306131047/tools/bin/../lib/gcc/arm-none-eabi/12.2.1/../../../../arm-none-eabi/lib/thumb/v6-m/nofp/libcr_c.a(alloc.o)
                0x0000000000001290                free
 .text._deferredlazyseek
                0x00000000000012bc       0x40 /usr/local/mcuxpressoide-11.8.0_1165/ide/plugins/com.nxp.mcuxpresso.tools.linux_11.8.0.202306131047/tools/bin/../lib/gcc/arm-none-eabi/12.2.1/../../../../arm-none-eabi/lib/thumb/v6-m/nofp/libcr_c.a(_deferredlazyseek.o)
                0x00000000000012bc                _deferredlazyseek
 .text.__aeabi_division_idivmod
                0x00000000000012fc       0x78 /usr/local/mcuxpressoide-11.8.0_1165/ide/plugins/com.nxp.mcuxpresso.tools.linux_11.8.0.202306131047/tools/bin/../lib/gcc/arm-none-eabi/12.2.1/thumb/v6-m/nofp/libcr_eabihelpers.a(division_32.o)
                0x00000000000012fc                __aeabi_idiv
                0x00000000000012fc                __aeabi_idivmod
                0x0000000000001302                __aeabi_uidiv
                0x0000000000001302                __aeabi_uidivmod
 .text.__aeabi_division_idiv0
                0x0000000000001374        0x2 /usr/local/mcuxpressoide-11.8.0_1165/ide/plugins/com.nxp.mcuxpresso.tools.linux_11.8.0.202306131047/tools/bin/../lib/gcc/arm-none-eabi/12.2.1/thumb/v6-m/nofp/libcr_eabihelpers.a(division_idiv0.o)
                0x0000000000001374                __aeabi_idiv0
 .text.__aeabi_memset_lowlevel
                0x0000000000001376       0x2a /usr/local/mcuxpressoide-11.8.0_1165/ide/plugins/com.nxp.mcuxpresso.tools.linux_11.8.0.202306131047/tools/bin/../lib/gcc/arm-none-eabi/12.2.1/thumb/v6-m/nofp/libcr_eabihelpers.a(memcpy.o)
                0x0000000000001376                __aeabi_lowlevel_memset
 .text.__sys_close
                0x00000000000013a0        0x6 /usr/local/mcuxpressoide-11.8.0_1165/ide/plugins/com.nxp.mcuxpresso.tools.linux_11.8.0.202306131047/tools/bin/../lib/gcc/arm-none-eabi/12.2.1/../../../../arm-none-eabi/lib/thumb/v6-m/nofp/libcr_nohost_nf.a(__sys_close.o)
                0x00000000000013a0                __sys_close
 .text.__sys_flen
                0x00000000000013a6        0x6 /usr/local/mcuxpressoide-11.8.0_1165/ide/plugins/com.nxp.mcuxpresso.tools.linux_11.8.0.202306131047/tools/bin/../lib/gcc/arm-none-eabi/12.2.1/../../../../arm-none-eabi/lib/thumb/v6-m/nofp/libcr_nohost_nf.a(__sys_flen.o)
                0x00000000000013a6                __sys_flen
 .text.__sys_istty
                0x00000000000013ac        0x6 /usr/local/mcuxpressoide-11.8.0_1165/ide/plugins/com.nxp.mcuxpresso.tools.linux_11.8.0.202306131047/tools/bin/../lib/gcc/arm-none-eabi/12.2.1/../../../../arm-none-eabi/lib/thumb/v6-m/nofp/libcr_nohost_nf.a(__sys_istty.o)
                0x00000000000013ac                __sys_istty
 .text.__sys_remove
                0x00000000000013b2        0x6 /usr/local/mcuxpressoide-11.8.0_1165/ide/plugins/com.nxp.mcuxpresso.tools.linux_11.8.0.202306131047/tools/bin/../lib/gcc/arm-none-eabi/12.2.1/../../../../arm-none-eabi/lib/thumb/v6-m/nofp/libcr_nohost_nf.a(__sys_remove.o)
                0x00000000000013b2                __sys_remove
 .text.__sys_seek
                0x00000000000013b8        0x6 /usr/local/mcuxpressoide-11.8.0_1165/ide/plugins/com.nxp.mcuxpresso.tools.linux_11.8.0.202306131047/tools/bin/../lib/gcc/arm-none-eabi/12.2.1/../../../../arm-none-eabi/lib/thumb/v6-m/nofp/libcr_nohost_nf.a(__sys_seek.o)
                0x00000000000013b8                __sys_seek
 .text.__sys_tmpnam
                0x00000000000013be        0x6 /usr/local/mcuxpressoide-11.8.0_1165/ide/plugins/com.nxp.mcuxpresso.tools.linux_11.8.0.202306131047/tools/bin/../lib/gcc/arm-none-eabi/12.2.1/../../../../arm-none-eabi/lib/thumb/v6-m/nofp/libcr_nohost_nf.a(__sys_tmpnam.o)
                0x00000000000013be                __sys_tmpnam
 *(.rodata .rodata.* .constdata .constdata.*)
 .rodata.cLEDxIdxArr
                0x00000000000013c4       0x14 ./src/CapTouch_5ch_main.o
                0x00000000000013c4                cLEDxIdxArr
 .rodata.cLEDxMaskArr
                0x00000000000013d8       0x14 ./src/CapTouch_5ch_main.o
                0x00000000000013d8                cLEDxMaskArr
 .rodata._initio.str1.1
                0x00000000000013ec        0x4 /usr/local/mcuxpressoide-11.8.0_1165/ide/plugins/com.nxp.mcuxpresso.tools.linux_11.8.0.202306131047/tools/bin/../lib/gcc/arm-none-eabi/12.2.1/../../../../arm-none-eabi/lib/thumb/v6-m/nofp/libcr_c.a(initio.o)
 .rodata.__num_Ciob_streams
                0x00000000000013f0        0x4 /usr/local/mcuxpressoide-11.8.0_1165/ide/plugins/com.nxp.mcuxpresso.tools.linux_11.8.0.202306131047/tools/bin/../lib/gcc/arm-none-eabi/12.2.1/../../../../arm-none-eabi/lib/thumb/v6-m/nofp/libcr_nohost_nf.a(__ciob.o)
                0x00000000000013f0                __num_Ciob_streams
                0x00000000000013f4                . = ALIGN (0x4)

.glue_7         0x00000000000013f4        0x0
 .glue_7        0x00000000000013f4        0x0 linker stubs

.glue_7t        0x00000000000013f4        0x0
 .glue_7t       0x00000000000013f4        0x0 linker stubs

.vfp11_veneer   0x00000000000013f4        0x0
 .vfp11_veneer  0x00000000000013f4        0x0 linker stubs

.v4_bx          0x00000000000013f4        0x0
 .v4_bx         0x00000000000013f4        0x0 linker stubs

.iplt           0x00000000000013f4        0x0
 .iplt          0x00000000000013f4        0x0 ./src/CapTouch_5ch_ISRs.o

.rel.dyn        0x00000000000013f4        0x0
 .rel.iplt      0x00000000000013f4        0x0 ./src/CapTouch_5ch_ISRs.o

.ARM.extab
 *(.ARM.extab* .gnu.linkonce.armextab.*)

.ARM.exidx      0x00000000000013f4        0x0
                0x00000000000013f4                __exidx_start = .
 *(.ARM.exidx* .gnu.linkonce.armexidx.*)
                0x00000000000013f4                __exidx_end = .
                0x00000000000013f4                _etext = .

.uninit_RESERVED
                0x0000000010000000        0x0
                0x0000000010000000                _start_uninit_RESERVED = .
 *(.bss.$RESERVED*)
                0x0000000010000000                . = ALIGN (0x4)
                0x0000000010000000                _end_uninit_RESERVED = .

.data           0x0000000010000000       0x1c load address 0x00000000000013f4
 FILL mask 0xff
                0x0000000010000000                _data = .
                [!provide]                        PROVIDE (__start_data_RAM = .)
                [!provide]                        PROVIDE (__start_data_RamLoc4 = .)
 *(vtable)
 *(.ramfunc*)
 *(CodeQuickAccess)
 *(DataQuickAccess)
 *(RamFunction)
 *(.data*)
 .data.gAppCapTouchKeyValueFilterCountMax
                0x0000000010000000        0x4 ./src/CapTouch_5ch_ISRs.o
                0x0000000010000000                gAppCapTouchKeyValueFilterCountMax
 .data.gAppCapTouchKeyValueFilterValue
                0x0000000010000004        0x4 ./src/CapTouch_5ch_ISRs.o
                0x0000000010000004                gAppCapTouchKeyValueFilterValue
 .data.main_clk
                0x0000000010000008        0x4 ./src/system.o
                0x0000000010000008                main_clk
 .data.lposc_clk
                0x000000001000000c        0x4 ./src/system.o
                0x000000001000000c                lposc_clk
 .data.fro_clk  0x0000000010000010        0x4 ./src/system.o
                0x0000000010000010                fro_clk
 .data.fro_div_clk
                0x0000000010000014        0x4 ./src/system.o
                0x0000000010000014                fro_div_clk
 .data.system_ahb_clk
                0x0000000010000018        0x4 ./src/system.o
                0x0000000010000018                system_ahb_clk
                0x000000001000001c                . = ALIGN (0x4)
                0x000000001000001c                _edata = .
                [!provide]                        PROVIDE (__end_data_RAM = .)
                [!provide]                        PROVIDE (__end_data_RamLoc4 = .)

.igot.plt       0x000000001000001c        0x0 load address 0x0000000000001410
 .igot.plt      0x000000001000001c        0x0 ./src/CapTouch_5ch_ISRs.o

.bss            0x000000001000001c      0x100
                0x000000001000001c                _bss = .
                [!provide]                        PROVIDE (__start_bss_RAM = .)
                [!provide]                        PROVIDE (__start_bss_RamLoc4 = .)
 *(.bss*)
 .bss.gAppCapTouchTimeoutErrCounter
                0x000000001000001c        0x4 ./src/CapTouch_5ch_ISRs.o
                0x000000001000001c                gAppCapTouchTimeoutErrCounter
 .bss.gAppCapTouchValue
                0x0000000010000020       0x14 ./src/CapTouch_5ch_ISRs.o
                0x0000000010000020                gAppCapTouchValue
 .bss.gAppCapTouchKeyValue
                0x0000000010000034        0x4 ./src/CapTouch_5ch_ISRs.o
                0x0000000010000034                gAppCapTouchKeyValue
 .bss.gAppCapTouchCalibrationFIFO
                0x0000000010000038       0x14 ./src/CapTouch_5ch_ISRs.o
                0x0000000010000038                gAppCapTouchCalibrationFIFO
 .bss.gAppCapTouchCalibrationIdx
                0x000000001000004c        0x4 ./src/CapTouch_5ch_ISRs.o
                0x000000001000004c                gAppCapTouchCalibrationIdx
 .bss.gAppCapTouchThresholdValue
                0x0000000010000050        0x4 ./src/CapTouch_5ch_ISRs.o
                0x0000000010000050                gAppCapTouchThresholdValue
 .bss.bAppCapTouchCalibrationDone
                0x0000000010000054        0x1 ./src/CapTouch_5ch_ISRs.o
                0x0000000010000054                bAppCapTouchCalibrationDone
 *fill*         0x0000000010000055        0x3 
 .bss.gAppCapTouchKeyValueFilterCount
                0x0000000010000058        0x4 ./src/CapTouch_5ch_ISRs.o
                0x0000000010000058                gAppCapTouchKeyValueFilterCount
 .bss.gAppCapTouchKeyValueFilterValueNew
                0x000000001000005c        0x4 ./src/CapTouch_5ch_ISRs.o
                0x000000001000005c                gAppCapTouchKeyValueFilterValueNew
 .bss.gAppTickerCounter
                0x0000000010000060        0x4 ./src/CapTouch_5ch_main.o
                0x0000000010000060                gAppTickerCounter
 .bss.errno     0x0000000010000064        0x4 /usr/local/mcuxpressoide-11.8.0_1165/ide/plugins/com.nxp.mcuxpresso.tools.linux_11.8.0.202306131047/tools/bin/../lib/gcc/arm-none-eabi/12.2.1/../../../../arm-none-eabi/lib/thumb/v6-m/nofp/libcr_c.a(errno.o)
                0x0000000010000064                errno
 .bss.__Ciob    0x0000000010000068       0xb4 /usr/local/mcuxpressoide-11.8.0_1165/ide/plugins/com.nxp.mcuxpresso.tools.linux_11.8.0.202306131047/tools/bin/../lib/gcc/arm-none-eabi/12.2.1/../../../../arm-none-eabi/lib/thumb/v6-m/nofp/libcr_nohost_nf.a(__ciob.o)
                0x0000000010000068                __Ciob
 *(COMMON)
                0x000000001000011c                . = ALIGN (0x4)
                0x000000001000011c                _ebss = .
                [!provide]                        PROVIDE (__end_bss_RAM = .)
                [!provide]                        PROVIDE (__end_bss_RamLoc4 = .)
                [!provide]                        PROVIDE (end = .)

.noinit         0x000000001000011c        0x0
                0x000000001000011c                _noinit = .
                [!provide]                        PROVIDE (__start_noinit_RAM = .)
                [!provide]                        PROVIDE (__start_noinit_RamLoc4 = .)
 *(.noinit*)
                0x000000001000011c                . = ALIGN (0x4)
                0x000000001000011c                _end_noinit = .
                [!provide]                        PROVIDE (__end_noinit_RAM = .)
                [!provide]                        PROVIDE (__end_noinit_RamLoc4 = .)
                0x000000001000011c                PROVIDE (_pvHeapStart = DEFINED (__user_heap_base)?__user_heap_base:.)
                0x0000000010001000                PROVIDE (_vStackTop = DEFINED (__user_stack_top)?__user_stack_top:(__top_RamLoc4 - 0x0))
                0xffffffffefffeb11                PROVIDE (__valid_user_code_checksum = (0x0 - (((_vStackTop + (ResetISR + 0x1)) + (DEFINED (NMI_Handler)?NMI_Handler:M0_NMI_Handler + 0x1)) + (DEFINED (HardFault_Handler)?HardFault_Handler:M0_HardFault_Handler + 0x1))))
                0x0000000000000000                _image_start = LOADADDR (.text)
                0x0000000000001410                _image_end = (LOADADDR (.data) + SIZEOF (.data))
                0x0000000000001410                _image_size = (_image_end - _image_start)
OUTPUT(CapTouch_5ch.axf elf32-littlearm)
LOAD linker stubs

.debug_info     0x0000000000000000     0x35eb
 .debug_info    0x0000000000000000      0x308 ./src/CapTouch_5ch_ISRs.o
 .debug_info    0x0000000000000308      0xe72 ./src/CapTouch_5ch_main.o
 .debug_info    0x000000000000117a       0xce ./src/MCUXpresso_Retarget.o
 .debug_info    0x0000000000001248      0x233 ./src/MCUXpresso_cr_startup.o
 .debug_info    0x000000000000147b       0x41 ./src/MCUXpresso_crp.o
 .debug_info    0x00000000000014bc      0x6a5 ./src/Serial.o
 .debug_info    0x0000000000001b61      0x847 ./src/system.o
 .debug_info    0x00000000000023a8      0xa09 /home/gabo/infoIndusLocal/workspace/peripherals_lib/flash/libperipherals_lib.a(gpio.o)
 .debug_info    0x0000000000002db1      0x283 /home/gabo/infoIndusLocal/workspace/peripherals_lib/flash/libperipherals_lib.a(swm.o)
 .debug_info    0x0000000000003034      0x5b7 /home/gabo/infoIndusLocal/workspace/peripherals_lib/flash/libperipherals_lib.a(syscon.o)

.debug_abbrev   0x0000000000000000      0xf50
 .debug_abbrev  0x0000000000000000      0x170 ./src/CapTouch_5ch_ISRs.o
 .debug_abbrev  0x0000000000000170      0x363 ./src/CapTouch_5ch_main.o
 .debug_abbrev  0x00000000000004d3       0xc9 ./src/MCUXpresso_Retarget.o
 .debug_abbrev  0x000000000000059c      0x152 ./src/MCUXpresso_cr_startup.o
 .debug_abbrev  0x00000000000006ee       0x37 ./src/MCUXpresso_crp.o
 .debug_abbrev  0x0000000000000725      0x1fb ./src/Serial.o
 .debug_abbrev  0x0000000000000920      0x1bf ./src/system.o
 .debug_abbrev  0x0000000000000adf      0x207 /home/gabo/infoIndusLocal/workspace/peripherals_lib/flash/libperipherals_lib.a(gpio.o)
 .debug_abbrev  0x0000000000000ce6      0x147 /home/gabo/infoIndusLocal/workspace/peripherals_lib/flash/libperipherals_lib.a(swm.o)
 .debug_abbrev  0x0000000000000e2d      0x123 /home/gabo/infoIndusLocal/workspace/peripherals_lib/flash/libperipherals_lib.a(syscon.o)

.debug_aranges  0x0000000000000000      0x278
 .debug_aranges
                0x0000000000000000       0x20 ./src/CapTouch_5ch_ISRs.o
 .debug_aranges
                0x0000000000000020       0xb0 ./src/CapTouch_5ch_main.o
 .debug_aranges
                0x00000000000000d0       0x28 ./src/MCUXpresso_Retarget.o
 .debug_aranges
                0x00000000000000f8       0x60 ./src/MCUXpresso_cr_startup.o
 .debug_aranges
                0x0000000000000158       0x18 ./src/MCUXpresso_crp.o
 .debug_aranges
                0x0000000000000170       0x40 ./src/Serial.o
 .debug_aranges
                0x00000000000001b0       0x28 ./src/system.o
 .debug_aranges
                0x00000000000001d8       0x38 /home/gabo/infoIndusLocal/workspace/peripherals_lib/flash/libperipherals_lib.a(gpio.o)
 .debug_aranges
                0x0000000000000210       0x30 /home/gabo/infoIndusLocal/workspace/peripherals_lib/flash/libperipherals_lib.a(swm.o)
 .debug_aranges
                0x0000000000000240       0x38 /home/gabo/infoIndusLocal/workspace/peripherals_lib/flash/libperipherals_lib.a(syscon.o)

.debug_rnglists
                0x0000000000000000      0x1a4
 .debug_rnglists
                0x0000000000000000       0x14 ./src/CapTouch_5ch_ISRs.o
 .debug_rnglists
                0x0000000000000014       0x81 ./src/CapTouch_5ch_main.o
 .debug_rnglists
                0x0000000000000095       0x19 ./src/MCUXpresso_Retarget.o
 .debug_rnglists
                0x00000000000000ae       0x44 ./src/MCUXpresso_cr_startup.o
 .debug_rnglists
                0x00000000000000f2       0x2c ./src/Serial.o
 .debug_rnglists
                0x000000000000011e       0x1b ./src/system.o
 .debug_rnglists
                0x0000000000000139       0x25 /home/gabo/infoIndusLocal/workspace/peripherals_lib/flash/libperipherals_lib.a(gpio.o)
 .debug_rnglists
                0x000000000000015e       0x20 /home/gabo/infoIndusLocal/workspace/peripherals_lib/flash/libperipherals_lib.a(swm.o)
 .debug_rnglists
                0x000000000000017e       0x26 /home/gabo/infoIndusLocal/workspace/peripherals_lib/flash/libperipherals_lib.a(syscon.o)

.debug_macro    0x0000000000000000     0x35c0
 .debug_macro   0x0000000000000000      0x112 ./src/CapTouch_5ch_ISRs.o
 .debug_macro   0x0000000000000112      0xaae ./src/CapTouch_5ch_ISRs.o
 .debug_macro   0x0000000000000bc0       0x10 ./src/CapTouch_5ch_ISRs.o
 .debug_macro   0x0000000000000bd0      0x12e ./src/CapTouch_5ch_ISRs.o
 .debug_macro   0x0000000000000cfe      0x5b3 ./src/CapTouch_5ch_ISRs.o
 .debug_macro   0x00000000000012b1       0x22 ./src/CapTouch_5ch_ISRs.o
 .debug_macro   0x00000000000012d3       0xd8 ./src/CapTouch_5ch_ISRs.o
 .debug_macro   0x00000000000013ab       0x28 ./src/CapTouch_5ch_ISRs.o
 .debug_macro   0x00000000000013d3       0x3a ./src/CapTouch_5ch_ISRs.o
 .debug_macro   0x000000000000140d      0x241 ./src/CapTouch_5ch_ISRs.o
 .debug_macro   0x000000000000164e      0x1a8 ./src/CapTouch_5ch_ISRs.o
 .debug_macro   0x00000000000017f6       0x40 ./src/CapTouch_5ch_ISRs.o
 .debug_macro   0x0000000000001836       0x76 ./src/CapTouch_5ch_ISRs.o
 .debug_macro   0x00000000000018ac      0x3a2 ./src/CapTouch_5ch_ISRs.o
 .debug_macro   0x0000000000001c4e      0x1dd ./src/CapTouch_5ch_ISRs.o
 .debug_macro   0x0000000000001e2b       0x5e ./src/CapTouch_5ch_ISRs.o
 .debug_macro   0x0000000000001e89       0xe2 ./src/CapTouch_5ch_ISRs.o
 .debug_macro   0x0000000000001f6b       0x64 ./src/CapTouch_5ch_ISRs.o
 .debug_macro   0x0000000000001fcf       0xe2 ./src/CapTouch_5ch_ISRs.o
 .debug_macro   0x00000000000020b1      0x15a ./src/CapTouch_5ch_ISRs.o
 .debug_macro   0x000000000000220b       0x4c ./src/CapTouch_5ch_ISRs.o
 .debug_macro   0x0000000000002257      0x115 ./src/CapTouch_5ch_main.o
 .debug_macro   0x000000000000236c       0x11 ./src/MCUXpresso_Retarget.o
 .debug_macro   0x000000000000237d       0x1d ./src/MCUXpresso_cr_startup.o
 .debug_macro   0x000000000000239a       0x1a ./src/MCUXpresso_crp.o
 .debug_macro   0x00000000000023b4       0x34 ./src/MCUXpresso_crp.o
 .debug_macro   0x00000000000023e8       0xa3 ./src/Serial.o
 .debug_macro   0x000000000000248b       0xfd ./src/system.o
 .debug_macro   0x0000000000002588       0x4c ./src/system.o
 .debug_macro   0x00000000000025d4       0x22 ./src/system.o
 .debug_macro   0x00000000000025f6       0x88 /home/gabo/infoIndusLocal/workspace/peripherals_lib/flash/libperipherals_lib.a(gpio.o)
 .debug_macro   0x000000000000267e      0xaa2 /home/gabo/infoIndusLocal/workspace/peripherals_lib/flash/libperipherals_lib.a(gpio.o)
 .debug_macro   0x0000000000003120       0x85 /home/gabo/infoIndusLocal/workspace/peripherals_lib/flash/libperipherals_lib.a(swm.o)
 .debug_macro   0x00000000000031a5      0x39c /home/gabo/infoIndusLocal/workspace/peripherals_lib/flash/libperipherals_lib.a(swm.o)
 .debug_macro   0x0000000000003541       0x7f /home/gabo/infoIndusLocal/workspace/peripherals_lib/flash/libperipherals_lib.a(syscon.o)

.debug_line     0x0000000000000000     0x1f31
 .debug_line    0x0000000000000000      0x42e ./src/CapTouch_5ch_ISRs.o
 .debug_line    0x000000000000042e      0x796 ./src/CapTouch_5ch_main.o
 .debug_line    0x0000000000000bc4       0x8d ./src/MCUXpresso_Retarget.o
 .debug_line    0x0000000000000c51      0x13c ./src/MCUXpresso_cr_startup.o
 .debug_line    0x0000000000000d8d       0xc0 ./src/MCUXpresso_crp.o
 .debug_line    0x0000000000000e4d      0x3f8 ./src/Serial.o
 .debug_line    0x0000000000001245      0x3f9 ./src/system.o
 .debug_line    0x000000000000163e      0x2f7 /home/gabo/infoIndusLocal/workspace/peripherals_lib/flash/libperipherals_lib.a(gpio.o)
 .debug_line    0x0000000000001935      0x2d2 /home/gabo/infoIndusLocal/workspace/peripherals_lib/flash/libperipherals_lib.a(swm.o)
 .debug_line    0x0000000000001c07      0x32a /home/gabo/infoIndusLocal/workspace/peripherals_lib/flash/libperipherals_lib.a(syscon.o)

.debug_str      0x0000000000000000     0x8e10
 .debug_str     0x0000000000000000     0x7976 ./src/CapTouch_5ch_ISRs.o
                                       0x7a1b (size before relaxing)
 .debug_str     0x0000000000007976      0x9ac ./src/CapTouch_5ch_main.o
                                       0x8252 (size before relaxing)
 .debug_str     0x0000000000008322       0x69 ./src/MCUXpresso_Retarget.o
                                       0x2dc5 (size before relaxing)
 .debug_str     0x000000000000838b      0x1b3 ./src/MCUXpresso_cr_startup.o
                                       0x2f1d (size before relaxing)
 .debug_str     0x000000000000853e       0xf4 ./src/MCUXpresso_crp.o
                                       0x2e58 (size before relaxing)
 .debug_str     0x0000000000008632       0xcc ./src/Serial.o
                                       0x7051 (size before relaxing)
 .debug_str     0x00000000000086fe      0x440 ./src/system.o
                                       0x7200 (size before relaxing)
 .debug_str     0x0000000000008b3e      0x164 /home/gabo/infoIndusLocal/workspace/peripherals_lib/flash/libperipherals_lib.a(gpio.o)
                                       0x665d (size before relaxing)
 .debug_str     0x0000000000008ca2      0x101 /home/gabo/infoIndusLocal/workspace/peripherals_lib/flash/libperipherals_lib.a(swm.o)
                                       0x6324 (size before relaxing)
 .debug_str     0x0000000000008da3       0x6d /home/gabo/infoIndusLocal/workspace/peripherals_lib/flash/libperipherals_lib.a(syscon.o)
                                       0x641d (size before relaxing)

.comment        0x0000000000000000       0x45
 .comment       0x0000000000000000       0x45 ./src/CapTouch_5ch_ISRs.o
                                         0x46 (size before relaxing)
 .comment       0x0000000000000045       0x46 ./src/CapTouch_5ch_main.o
 .comment       0x0000000000000045       0x46 ./src/MCUXpresso_Retarget.o
 .comment       0x0000000000000045       0x46 ./src/MCUXpresso_cr_startup.o
 .comment       0x0000000000000045       0x46 ./src/MCUXpresso_crp.o
 .comment       0x0000000000000045       0x46 ./src/Serial.o
 .comment       0x0000000000000045       0x46 ./src/system.o
 .comment       0x0000000000000045       0x46 /home/gabo/infoIndusLocal/workspace/peripherals_lib/flash/libperipherals_lib.a(gpio.o)
 .comment       0x0000000000000045       0x46 /home/gabo/infoIndusLocal/workspace/peripherals_lib/flash/libperipherals_lib.a(swm.o)
 .comment       0x0000000000000045       0x46 /home/gabo/infoIndusLocal/workspace/peripherals_lib/flash/libperipherals_lib.a(syscon.o)
 .comment       0x0000000000000045       0x46 /usr/local/mcuxpressoide-11.8.0_1165/ide/plugins/com.nxp.mcuxpresso.tools.linux_11.8.0.202306131047/tools/bin/../lib/gcc/arm-none-eabi/12.2.1/../../../../arm-none-eabi/lib/thumb/v6-m/nofp/libcr_nohost_nf.a(_cr__main.o)
 .comment       0x0000000000000045       0x46 /usr/local/mcuxpressoide-11.8.0_1165/ide/plugins/com.nxp.mcuxpresso.tools.linux_11.8.0.202306131047/tools/bin/../lib/gcc/arm-none-eabi/12.2.1/../../../../arm-none-eabi/lib/thumb/v6-m/nofp/libcr_c.a(initio.o)
 .comment       0x0000000000000045       0x46 /usr/local/mcuxpressoide-11.8.0_1165/ide/plugins/com.nxp.mcuxpresso.tools.linux_11.8.0.202306131047/tools/bin/../lib/gcc/arm-none-eabi/12.2.1/../../../../arm-none-eabi/lib/thumb/v6-m/nofp/libcr_c.a(setvbuf.o)
 .comment       0x0000000000000045       0x46 /usr/local/mcuxpressoide-11.8.0_1165/ide/plugins/com.nxp.mcuxpresso.tools.linux_11.8.0.202306131047/tools/bin/../lib/gcc/arm-none-eabi/12.2.1/../../../../arm-none-eabi/lib/thumb/v6-m/nofp/libcr_c.a(_fdopen.o)
 .comment       0x0000000000000045       0x46 /usr/local/mcuxpressoide-11.8.0_1165/ide/plugins/com.nxp.mcuxpresso.tools.linux_11.8.0.202306131047/tools/bin/../lib/gcc/arm-none-eabi/12.2.1/../../../../arm-none-eabi/lib/thumb/v6-m/nofp/libcr_c.a(fclose.o)
 .comment       0x0000000000000045       0x46 /usr/local/mcuxpressoide-11.8.0_1165/ide/plugins/com.nxp.mcuxpresso.tools.linux_11.8.0.202306131047/tools/bin/../lib/gcc/arm-none-eabi/12.2.1/../../../../arm-none-eabi/lib/thumb/v6-m/nofp/libcr_c.a(fflush.o)
 .comment       0x0000000000000045       0x46 /usr/local/mcuxpressoide-11.8.0_1165/ide/plugins/com.nxp.mcuxpresso.tools.linux_11.8.0.202306131047/tools/bin/../lib/gcc/arm-none-eabi/12.2.1/../../../../arm-none-eabi/lib/thumb/v6-m/nofp/libcr_c.a(fseek.o)
 .comment       0x0000000000000045       0x46 /usr/local/mcuxpressoide-11.8.0_1165/ide/plugins/com.nxp.mcuxpresso.tools.linux_11.8.0.202306131047/tools/bin/../lib/gcc/arm-none-eabi/12.2.1/../../../../arm-none-eabi/lib/thumb/v6-m/nofp/libcr_c.a(ftell.o)
 .comment       0x0000000000000045       0x46 /usr/local/mcuxpressoide-11.8.0_1165/ide/plugins/com.nxp.mcuxpresso.tools.linux_11.8.0.202306131047/tools/bin/../lib/gcc/arm-none-eabi/12.2.1/../../../../arm-none-eabi/lib/thumb/v6-m/nofp/libcr_c.a(remove.o)
 .comment       0x0000000000000045       0x46 /usr/local/mcuxpressoide-11.8.0_1165/ide/plugins/com.nxp.mcuxpresso.tools.linux_11.8.0.202306131047/tools/bin/../lib/gcc/arm-none-eabi/12.2.1/../../../../arm-none-eabi/lib/thumb/v6-m/nofp/libcr_c.a(strlen.o)
 .comment       0x0000000000000045       0x46 /usr/local/mcuxpressoide-11.8.0_1165/ide/plugins/com.nxp.mcuxpresso.tools.linux_11.8.0.202306131047/tools/bin/../lib/gcc/arm-none-eabi/12.2.1/../../../../arm-none-eabi/lib/thumb/v6-m/nofp/libcr_c.a(memset.o)
 .comment       0x0000000000000045       0x46 /usr/local/mcuxpressoide-11.8.0_1165/ide/plugins/com.nxp.mcuxpresso.tools.linux_11.8.0.202306131047/tools/bin/../lib/gcc/arm-none-eabi/12.2.1/../../../../arm-none-eabi/lib/thumb/v6-m/nofp/libcr_c.a(_do_fflush.o)
 .comment       0x0000000000000045       0x46 /usr/local/mcuxpressoide-11.8.0_1165/ide/plugins/com.nxp.mcuxpresso.tools.linux_11.8.0.202306131047/tools/bin/../lib/gcc/arm-none-eabi/12.2.1/../../../../arm-none-eabi/lib/thumb/v6-m/nofp/libcr_c.a(_fflush.o)
 .comment       0x0000000000000045       0x46 /usr/local/mcuxpressoide-11.8.0_1165/ide/plugins/com.nxp.mcuxpresso.tools.linux_11.8.0.202306131047/tools/bin/../lib/gcc/arm-none-eabi/12.2.1/../../../../arm-none-eabi/lib/thumb/v6-m/nofp/libcr_c.a(_writebuf.o)
 .comment       0x0000000000000045       0x46 /usr/local/mcuxpressoide-11.8.0_1165/ide/plugins/com.nxp.mcuxpresso.tools.linux_11.8.0.202306131047/tools/bin/../lib/gcc/arm-none-eabi/12.2.1/../../../../arm-none-eabi/lib/thumb/v6-m/nofp/libcr_c.a(alloc.o)
 .comment       0x0000000000000045       0x46 /usr/local/mcuxpressoide-11.8.0_1165/ide/plugins/com.nxp.mcuxpresso.tools.linux_11.8.0.202306131047/tools/bin/../lib/gcc/arm-none-eabi/12.2.1/../../../../arm-none-eabi/lib/thumb/v6-m/nofp/libcr_c.a(errno.o)
 .comment       0x0000000000000045       0x46 /usr/local/mcuxpressoide-11.8.0_1165/ide/plugins/com.nxp.mcuxpresso.tools.linux_11.8.0.202306131047/tools/bin/../lib/gcc/arm-none-eabi/12.2.1/../../../../arm-none-eabi/lib/thumb/v6-m/nofp/libcr_c.a(_deferredlazyseek.o)
 .comment       0x0000000000000045       0x46 /usr/local/mcuxpressoide-11.8.0_1165/ide/plugins/com.nxp.mcuxpresso.tools.linux_11.8.0.202306131047/tools/bin/../lib/gcc/arm-none-eabi/12.2.1/../../../../arm-none-eabi/lib/thumb/v6-m/nofp/libcr_nohost_nf.a(__ciob.o)
 .comment       0x0000000000000045       0x46 /usr/local/mcuxpressoide-11.8.0_1165/ide/plugins/com.nxp.mcuxpresso.tools.linux_11.8.0.202306131047/tools/bin/../lib/gcc/arm-none-eabi/12.2.1/../../../../arm-none-eabi/lib/thumb/v6-m/nofp/libcr_nohost_nf.a(__sys_close.o)
 .comment       0x0000000000000045       0x46 /usr/local/mcuxpressoide-11.8.0_1165/ide/plugins/com.nxp.mcuxpresso.tools.linux_11.8.0.202306131047/tools/bin/../lib/gcc/arm-none-eabi/12.2.1/../../../../arm-none-eabi/lib/thumb/v6-m/nofp/libcr_nohost_nf.a(__sys_flen.o)
 .comment       0x0000000000000045       0x46 /usr/local/mcuxpressoide-11.8.0_1165/ide/plugins/com.nxp.mcuxpresso.tools.linux_11.8.0.202306131047/tools/bin/../lib/gcc/arm-none-eabi/12.2.1/../../../../arm-none-eabi/lib/thumb/v6-m/nofp/libcr_nohost_nf.a(__sys_istty.o)
 .comment       0x0000000000000045       0x46 /usr/local/mcuxpressoide-11.8.0_1165/ide/plugins/com.nxp.mcuxpresso.tools.linux_11.8.0.202306131047/tools/bin/../lib/gcc/arm-none-eabi/12.2.1/../../../../arm-none-eabi/lib/thumb/v6-m/nofp/libcr_nohost_nf.a(__sys_remove.o)
 .comment       0x0000000000000045       0x46 /usr/local/mcuxpressoide-11.8.0_1165/ide/plugins/com.nxp.mcuxpresso.tools.linux_11.8.0.202306131047/tools/bin/../lib/gcc/arm-none-eabi/12.2.1/../../../../arm-none-eabi/lib/thumb/v6-m/nofp/libcr_nohost_nf.a(__sys_seek.o)
 .comment       0x0000000000000045       0x46 /usr/local/mcuxpressoide-11.8.0_1165/ide/plugins/com.nxp.mcuxpresso.tools.linux_11.8.0.202306131047/tools/bin/../lib/gcc/arm-none-eabi/12.2.1/../../../../arm-none-eabi/lib/thumb/v6-m/nofp/libcr_nohost_nf.a(__sys_tmpnam.o)

.ARM.attributes
                0x0000000000000000       0x2a
 .ARM.attributes
                0x0000000000000000       0x2c ./src/CapTouch_5ch_ISRs.o
 .ARM.attributes
                0x000000000000002c       0x2c ./src/CapTouch_5ch_main.o
 .ARM.attributes
                0x0000000000000058       0x2c ./src/MCUXpresso_Retarget.o
 .ARM.attributes
                0x0000000000000084       0x2c ./src/MCUXpresso_cr_startup.o
 .ARM.attributes
                0x00000000000000b0       0x2c ./src/MCUXpresso_crp.o
 .ARM.attributes
                0x00000000000000dc       0x2c ./src/Serial.o
 .ARM.attributes
                0x0000000000000108       0x2c ./src/system.o
 .ARM.attributes
                0x0000000000000134       0x2c /home/gabo/infoIndusLocal/workspace/peripherals_lib/flash/libperipherals_lib.a(gpio.o)
 .ARM.attributes
                0x0000000000000160       0x2c /home/gabo/infoIndusLocal/workspace/peripherals_lib/flash/libperipherals_lib.a(swm.o)
 .ARM.attributes
                0x000000000000018c       0x2c /home/gabo/infoIndusLocal/workspace/peripherals_lib/flash/libperipherals_lib.a(syscon.o)
 .ARM.attributes
                0x00000000000001b8       0x2c /usr/local/mcuxpressoide-11.8.0_1165/ide/plugins/com.nxp.mcuxpresso.tools.linux_11.8.0.202306131047/tools/bin/../lib/gcc/arm-none-eabi/12.2.1/../../../../arm-none-eabi/lib/thumb/v6-m/nofp/libcr_nohost_nf.a(_cr__main.o)
 .ARM.attributes
                0x00000000000001e4       0x2c /usr/local/mcuxpressoide-11.8.0_1165/ide/plugins/com.nxp.mcuxpresso.tools.linux_11.8.0.202306131047/tools/bin/../lib/gcc/arm-none-eabi/12.2.1/../../../../arm-none-eabi/lib/thumb/v6-m/nofp/libcr_c.a(initio.o)
 .ARM.attributes
                0x0000000000000210       0x2c /usr/local/mcuxpressoide-11.8.0_1165/ide/plugins/com.nxp.mcuxpresso.tools.linux_11.8.0.202306131047/tools/bin/../lib/gcc/arm-none-eabi/12.2.1/../../../../arm-none-eabi/lib/thumb/v6-m/nofp/libcr_c.a(setvbuf.o)
 .ARM.attributes
                0x000000000000023c       0x2c /usr/local/mcuxpressoide-11.8.0_1165/ide/plugins/com.nxp.mcuxpresso.tools.linux_11.8.0.202306131047/tools/bin/../lib/gcc/arm-none-eabi/12.2.1/../../../../arm-none-eabi/lib/thumb/v6-m/nofp/libcr_c.a(_fdopen.o)
 .ARM.attributes
                0x0000000000000268       0x2c /usr/local/mcuxpressoide-11.8.0_1165/ide/plugins/com.nxp.mcuxpresso.tools.linux_11.8.0.202306131047/tools/bin/../lib/gcc/arm-none-eabi/12.2.1/../../../../arm-none-eabi/lib/thumb/v6-m/nofp/libcr_c.a(fclose.o)
 .ARM.attributes
                0x0000000000000294       0x2c /usr/local/mcuxpressoide-11.8.0_1165/ide/plugins/com.nxp.mcuxpresso.tools.linux_11.8.0.202306131047/tools/bin/../lib/gcc/arm-none-eabi/12.2.1/../../../../arm-none-eabi/lib/thumb/v6-m/nofp/libcr_c.a(fflush.o)
 .ARM.attributes
                0x00000000000002c0       0x2c /usr/local/mcuxpressoide-11.8.0_1165/ide/plugins/com.nxp.mcuxpresso.tools.linux_11.8.0.202306131047/tools/bin/../lib/gcc/arm-none-eabi/12.2.1/../../../../arm-none-eabi/lib/thumb/v6-m/nofp/libcr_c.a(fseek.o)
 .ARM.attributes
                0x00000000000002ec       0x2c /usr/local/mcuxpressoide-11.8.0_1165/ide/plugins/com.nxp.mcuxpresso.tools.linux_11.8.0.202306131047/tools/bin/../lib/gcc/arm-none-eabi/12.2.1/../../../../arm-none-eabi/lib/thumb/v6-m/nofp/libcr_c.a(ftell.o)
 .ARM.attributes
                0x0000000000000318       0x2c /usr/local/mcuxpressoide-11.8.0_1165/ide/plugins/com.nxp.mcuxpresso.tools.linux_11.8.0.202306131047/tools/bin/../lib/gcc/arm-none-eabi/12.2.1/../../../../arm-none-eabi/lib/thumb/v6-m/nofp/libcr_c.a(remove.o)
 .ARM.attributes
                0x0000000000000344       0x2c /usr/local/mcuxpressoide-11.8.0_1165/ide/plugins/com.nxp.mcuxpresso.tools.linux_11.8.0.202306131047/tools/bin/../lib/gcc/arm-none-eabi/12.2.1/../../../../arm-none-eabi/lib/thumb/v6-m/nofp/libcr_c.a(strlen.o)
 .ARM.attributes
                0x0000000000000370       0x2c /usr/local/mcuxpressoide-11.8.0_1165/ide/plugins/com.nxp.mcuxpresso.tools.linux_11.8.0.202306131047/tools/bin/../lib/gcc/arm-none-eabi/12.2.1/../../../../arm-none-eabi/lib/thumb/v6-m/nofp/libcr_c.a(memset.o)
 .ARM.attributes
                0x000000000000039c       0x2c /usr/local/mcuxpressoide-11.8.0_1165/ide/plugins/com.nxp.mcuxpresso.tools.linux_11.8.0.202306131047/tools/bin/../lib/gcc/arm-none-eabi/12.2.1/../../../../arm-none-eabi/lib/thumb/v6-m/nofp/libcr_c.a(_do_fflush.o)
 .ARM.attributes
                0x00000000000003c8       0x2c /usr/local/mcuxpressoide-11.8.0_1165/ide/plugins/com.nxp.mcuxpresso.tools.linux_11.8.0.202306131047/tools/bin/../lib/gcc/arm-none-eabi/12.2.1/../../../../arm-none-eabi/lib/thumb/v6-m/nofp/libcr_c.a(_fflush.o)
 .ARM.attributes
                0x00000000000003f4       0x2c /usr/local/mcuxpressoide-11.8.0_1165/ide/plugins/com.nxp.mcuxpresso.tools.linux_11.8.0.202306131047/tools/bin/../lib/gcc/arm-none-eabi/12.2.1/../../../../arm-none-eabi/lib/thumb/v6-m/nofp/libcr_c.a(_writebuf.o)
 .ARM.attributes
                0x0000000000000420       0x2c /usr/local/mcuxpressoide-11.8.0_1165/ide/plugins/com.nxp.mcuxpresso.tools.linux_11.8.0.202306131047/tools/bin/../lib/gcc/arm-none-eabi/12.2.1/../../../../arm-none-eabi/lib/thumb/v6-m/nofp/libcr_c.a(alloc.o)
 .ARM.attributes
                0x000000000000044c       0x2c /usr/local/mcuxpressoide-11.8.0_1165/ide/plugins/com.nxp.mcuxpresso.tools.linux_11.8.0.202306131047/tools/bin/../lib/gcc/arm-none-eabi/12.2.1/../../../../arm-none-eabi/lib/thumb/v6-m/nofp/libcr_c.a(errno.o)
 .ARM.attributes
                0x0000000000000478       0x2c /usr/local/mcuxpressoide-11.8.0_1165/ide/plugins/com.nxp.mcuxpresso.tools.linux_11.8.0.202306131047/tools/bin/../lib/gcc/arm-none-eabi/12.2.1/../../../../arm-none-eabi/lib/thumb/v6-m/nofp/libcr_c.a(_deferredlazyseek.o)
 .ARM.attributes
                0x00000000000004a4       0x1c /usr/local/mcuxpressoide-11.8.0_1165/ide/plugins/com.nxp.mcuxpresso.tools.linux_11.8.0.202306131047/tools/bin/../lib/gcc/arm-none-eabi/12.2.1/thumb/v6-m/nofp/libcr_eabihelpers.a(division_32.o)
 .ARM.attributes
                0x00000000000004c0       0x1c /usr/local/mcuxpressoide-11.8.0_1165/ide/plugins/com.nxp.mcuxpresso.tools.linux_11.8.0.202306131047/tools/bin/../lib/gcc/arm-none-eabi/12.2.1/thumb/v6-m/nofp/libcr_eabihelpers.a(division_idiv0.o)
 .ARM.attributes
                0x00000000000004dc       0x1c /usr/local/mcuxpressoide-11.8.0_1165/ide/plugins/com.nxp.mcuxpresso.tools.linux_11.8.0.202306131047/tools/bin/../lib/gcc/arm-none-eabi/12.2.1/thumb/v6-m/nofp/libcr_eabihelpers.a(memcpy.o)
 .ARM.attributes
                0x00000000000004f8       0x2c /usr/local/mcuxpressoide-11.8.0_1165/ide/plugins/com.nxp.mcuxpresso.tools.linux_11.8.0.202306131047/tools/bin/../lib/gcc/arm-none-eabi/12.2.1/../../../../arm-none-eabi/lib/thumb/v6-m/nofp/libcr_nohost_nf.a(__ciob.o)
 .ARM.attributes
                0x0000000000000524       0x2c /usr/local/mcuxpressoide-11.8.0_1165/ide/plugins/com.nxp.mcuxpresso.tools.linux_11.8.0.202306131047/tools/bin/../lib/gcc/arm-none-eabi/12.2.1/../../../../arm-none-eabi/lib/thumb/v6-m/nofp/libcr_nohost_nf.a(__sys_close.o)
 .ARM.attributes
                0x0000000000000550       0x2c /usr/local/mcuxpressoide-11.8.0_1165/ide/plugins/com.nxp.mcuxpresso.tools.linux_11.8.0.202306131047/tools/bin/../lib/gcc/arm-none-eabi/12.2.1/../../../../arm-none-eabi/lib/thumb/v6-m/nofp/libcr_nohost_nf.a(__sys_flen.o)
 .ARM.attributes
                0x000000000000057c       0x2c /usr/local/mcuxpressoide-11.8.0_1165/ide/plugins/com.nxp.mcuxpresso.tools.linux_11.8.0.202306131047/tools/bin/../lib/gcc/arm-none-eabi/12.2.1/../../../../arm-none-eabi/lib/thumb/v6-m/nofp/libcr_nohost_nf.a(__sys_istty.o)
 .ARM.attributes
                0x00000000000005a8       0x2c /usr/local/mcuxpressoide-11.8.0_1165/ide/plugins/com.nxp.mcuxpresso.tools.linux_11.8.0.202306131047/tools/bin/../lib/gcc/arm-none-eabi/12.2.1/../../../../arm-none-eabi/lib/thumb/v6-m/nofp/libcr_nohost_nf.a(__sys_remove.o)
 .ARM.attributes
                0x00000000000005d4       0x2c /usr/local/mcuxpressoide-11.8.0_1165/ide/plugins/com.nxp.mcuxpresso.tools.linux_11.8.0.202306131047/tools/bin/../lib/gcc/arm-none-eabi/12.2.1/../../../../arm-none-eabi/lib/thumb/v6-m/nofp/libcr_nohost_nf.a(__sys_seek.o)
 .ARM.attributes
                0x0000000000000600       0x2c /usr/local/mcuxpressoide-11.8.0_1165/ide/plugins/com.nxp.mcuxpresso.tools.linux_11.8.0.202306131047/tools/bin/../lib/gcc/arm-none-eabi/12.2.1/../../../../arm-none-eabi/lib/thumb/v6-m/nofp/libcr_nohost_nf.a(__sys_tmpnam.o)

.debug_frame    0x0000000000000000      0x66c
 .debug_frame   0x0000000000000000       0x30 ./src/CapTouch_5ch_ISRs.o
 .debug_frame   0x0000000000000030      0x258 ./src/CapTouch_5ch_main.o
 .debug_frame   0x0000000000000288       0x4c ./src/MCUXpresso_Retarget.o
 .debug_frame   0x00000000000002d4      0x118 ./src/MCUXpresso_cr_startup.o
 .debug_frame   0x00000000000003ec       0xa4 ./src/Serial.o
 .debug_frame   0x0000000000000490       0x50 ./src/system.o
 .debug_frame   0x00000000000004e0       0x8c /home/gabo/infoIndusLocal/workspace/peripherals_lib/flash/libperipherals_lib.a(gpio.o)
 .debug_frame   0x000000000000056c       0x70 /home/gabo/infoIndusLocal/workspace/peripherals_lib/flash/libperipherals_lib.a(swm.o)
 .debug_frame   0x00000000000005dc       0x90 /home/gabo/infoIndusLocal/workspace/peripherals_lib/flash/libperipherals_lib.a(syscon.o)
